{
  "contractName": "Test",
  "abi": [
    {
      "constant": true,
      "inputs": [],
      "name": "getBytes32",
      "outputs": [
        {
          "name": "",
          "type": "bytes32"
        }
      ],
      "payable": false,
      "stateMutability": "view",
      "type": "function"
    },
    {
      "constant": false,
      "inputs": [
        {
          "name": "_value",
          "type": "bytes32"
        }
      ],
      "name": "setBytes32",
      "outputs": [],
      "payable": false,
      "stateMutability": "nonpayable",
      "type": "function"
    },
    {
      "constant": true,
      "inputs": [],
      "name": "getInt256",
      "outputs": [
        {
          "name": "",
          "type": "int256"
        }
      ],
      "payable": false,
      "stateMutability": "view",
      "type": "function"
    },
    {
      "constant": false,
      "inputs": [
        {
          "name": "_value",
          "type": "int256"
        }
      ],
      "name": "setInt256",
      "outputs": [],
      "payable": false,
      "stateMutability": "nonpayable",
      "type": "function"
    },
    {
      "constant": true,
      "inputs": [],
      "name": "getUint256",
      "outputs": [
        {
          "name": "",
          "type": "uint256"
        }
      ],
      "payable": false,
      "stateMutability": "view",
      "type": "function"
    },
    {
      "constant": false,
      "inputs": [
        {
          "name": "_value",
          "type": "uint256"
        }
      ],
      "name": "setUint256",
      "outputs": [],
      "payable": false,
      "stateMutability": "nonpayable",
      "type": "function"
    }
  ],
  "bytecode": "0x608060405234801561001057600080fd5b506101b2806100206000396000f3fe608060405234801561001057600080fd5b50600436106100625760003560e01c80631f903037146100675780636889597914610085578063a53b1c1e146100a3578063c2b12a73146100d1578063d2282dc5146100ff578063f5b53e171461012d575b600080fd5b61006f61014b565b6040518082815260200191505060405180910390f35b61008d610154565b6040518082815260200191505060405180910390f35b6100cf600480360360208110156100b957600080fd5b810190808035906020019092919050505061015e565b005b6100fd600480360360208110156100e757600080fd5b8101908080359060200190929190505050610168565b005b61012b6004803603602081101561011557600080fd5b8101908080359060200190929190505050610172565b005b61013561017c565b6040518082815260200191505060405180910390f35b60008054905090565b6000600254905090565b8060018190555050565b8060008190555050565b8060028190555050565b600060015490509056fea165627a7a723058206f04ee59143e5260ff5e225529406d89ab1b04d1827c8c56a52d783dcd86d6150029",
  "source": "pragma solidity >=0.4.21 <0.6.0;\n\ncontract Test {\n\n    bytes32 value1;\n    int256 value2;\n    uint256 value3;\n\n    function getBytes32() public view returns (bytes32) {\n        return value1;\n    }\n\n    function setBytes32(bytes32 _value) public {\n        value1 = _value;\n    }\n\n    function getInt256() public view returns (int256) {\n        return value2;\n    }\n\n    function setInt256(int256 _value) public {\n        value2 = _value;\n    }   \n\n    function getUint256() public view returns (uint256) {\n        return value3;\n    }\n\n    function setUint256(uint256 _value) public {\n        value3 = _value;\n    }\n}",
  "sourcePath": "/Users/gupadhyaya/go/src/github.com/harmony-one/counter/contracts/Test.sol",
  "compiler": {
    "name": "solc",
    "version": "0.5.8+commit.23d335f2.Emscripten.clang"
  },
  "schemaVersion": "3.0.16",
  "updatedAt": "2020-07-14T04:38:33.996Z",
  "devdoc": {
    "methods": {}
  },
  "userdoc": {
    "methods": {}
  }
}